{
  "_format": "hh-sol-artifact-1",
  "contractName": "TaskManagerV3",
  "sourceName": "contracts/TaskManagerV3.sol",
  "abi": [
    {
      "inputs": [
        {
          "internalType": "address",
          "name": "_priceFeed",
          "type": "address"
        }
      ],
      "stateMutability": "nonpayable",
      "type": "constructor"
    },
    {
      "anonymous": false,
      "inputs": [
        {
          "indexed": false,
          "internalType": "uint256",
          "name": "id",
          "type": "uint256"
        },
        {
          "indexed": false,
          "internalType": "address",
          "name": "owner",
          "type": "address"
        },
        {
          "indexed": false,
          "internalType": "string",
          "name": "description",
          "type": "string"
        },
        {
          "indexed": false,
          "internalType": "uint256",
          "name": "deadline",
          "type": "uint256"
        }
      ],
      "name": "TaskAdded",
      "type": "event"
    },
    {
      "anonymous": false,
      "inputs": [
        {
          "indexed": false,
          "internalType": "uint256",
          "name": "id",
          "type": "uint256"
        },
        {
          "indexed": false,
          "internalType": "address",
          "name": "owner",
          "type": "address"
        }
      ],
      "name": "TaskCompleted",
      "type": "event"
    },
    {
      "anonymous": false,
      "inputs": [
        {
          "indexed": false,
          "internalType": "uint256",
          "name": "id",
          "type": "uint256"
        },
        {
          "indexed": false,
          "internalType": "address",
          "name": "owner",
          "type": "address"
        }
      ],
      "name": "TaskDeleted",
      "type": "event"
    },
    {
      "inputs": [],
      "name": "MIN_PRICE",
      "outputs": [
        {
          "internalType": "uint256",
          "name": "",
          "type": "uint256"
        }
      ],
      "stateMutability": "view",
      "type": "function"
    },
    {
      "inputs": [
        {
          "internalType": "string",
          "name": "_description",
          "type": "string"
        },
        {
          "internalType": "uint256",
          "name": "_deadline",
          "type": "uint256"
        }
      ],
      "name": "addTask",
      "outputs": [],
      "stateMutability": "nonpayable",
      "type": "function"
    },
    {
      "inputs": [
        {
          "internalType": "uint256",
          "name": "_id",
          "type": "uint256"
        }
      ],
      "name": "completeTask",
      "outputs": [],
      "stateMutability": "nonpayable",
      "type": "function"
    },
    {
      "inputs": [
        {
          "internalType": "uint256",
          "name": "_id",
          "type": "uint256"
        }
      ],
      "name": "deleteTask",
      "outputs": [],
      "stateMutability": "nonpayable",
      "type": "function"
    },
    {
      "inputs": [],
      "name": "getLatestPrice",
      "outputs": [
        {
          "internalType": "int256",
          "name": "",
          "type": "int256"
        }
      ],
      "stateMutability": "view",
      "type": "function"
    },
    {
      "inputs": [
        {
          "internalType": "uint256",
          "name": "_id",
          "type": "uint256"
        }
      ],
      "name": "getTask",
      "outputs": [
        {
          "components": [
            {
              "internalType": "uint256",
              "name": "id",
              "type": "uint256"
            },
            {
              "internalType": "address",
              "name": "owner",
              "type": "address"
            },
            {
              "internalType": "string",
              "name": "description",
              "type": "string"
            },
            {
              "internalType": "uint256",
              "name": "deadline",
              "type": "uint256"
            },
            {
              "internalType": "enum TaskManagerV3.TaskStatus",
              "name": "status",
              "type": "uint8"
            }
          ],
          "internalType": "struct TaskManagerV3.Task",
          "name": "",
          "type": "tuple"
        }
      ],
      "stateMutability": "view",
      "type": "function"
    },
    {
      "inputs": [
        {
          "internalType": "address",
          "name": "_user",
          "type": "address"
        }
      ],
      "name": "getUserTasks",
      "outputs": [
        {
          "internalType": "uint256[]",
          "name": "",
          "type": "uint256[]"
        }
      ],
      "stateMutability": "view",
      "type": "function"
    },
    {
      "inputs": [
        {
          "internalType": "uint256",
          "name": "",
          "type": "uint256"
        }
      ],
      "name": "tasks",
      "outputs": [
        {
          "internalType": "uint256",
          "name": "id",
          "type": "uint256"
        },
        {
          "internalType": "address",
          "name": "owner",
          "type": "address"
        },
        {
          "internalType": "string",
          "name": "description",
          "type": "string"
        },
        {
          "internalType": "uint256",
          "name": "deadline",
          "type": "uint256"
        },
        {
          "internalType": "enum TaskManagerV3.TaskStatus",
          "name": "status",
          "type": "uint8"
        }
      ],
      "stateMutability": "view",
      "type": "function"
    },
    {
      "inputs": [],
      "name": "totalTasks",
      "outputs": [
        {
          "internalType": "uint256",
          "name": "",
          "type": "uint256"
        }
      ],
      "stateMutability": "view",
      "type": "function"
    },
    {
      "inputs": [
        {
          "internalType": "address",
          "name": "",
          "type": "address"
        },
        {
          "internalType": "uint256",
          "name": "",
          "type": "uint256"
        }
      ],
      "name": "userTasks",
      "outputs": [
        {
          "internalType": "uint256",
          "name": "",
          "type": "uint256"
        }
      ],
      "stateMutability": "view",
      "type": "function"
    }
  ],
  "bytecode": "0x608060405234801561001057600080fd5b50604051611f76380380611f76833981810160405281019061003291906100db565b806000806101000a81548173ffffffffffffffffffffffffffffffffffffffff021916908373ffffffffffffffffffffffffffffffffffffffff16021790555050610108565b600080fd5b600073ffffffffffffffffffffffffffffffffffffffff82169050919050565b60006100a88261007d565b9050919050565b6100b88161009d565b81146100c357600080fd5b50565b6000815190506100d5816100af565b92915050565b6000602082840312156100f1576100f0610078565b5b60006100ff848285016100c6565b91505092915050565b611e5f806101176000396000f3fe608060405234801561001057600080fd5b506004361061009e5760003560e01c80638e15f473116100665780638e15f4731461016f57806395d576601461018d578063ad9f20a6146101bd578063d22c81e5146101db578063e1e29558146101f95761009e565b80631d65e77e146100a35780633143d082146100d3578063560f3192146100ef57806366873a551461010b5780638d9776721461013b575b600080fd5b6100bd60048036038101906100b89190610f5a565b610215565b6040516100ca9190611154565b60405180910390f35b6100ed60048036038101906100e891906112ab565b6103cf565b005b61010960048036038101906101049190610f5a565b610674565b005b61012560048036038101906101209190611333565b6109ca565b6040516101329190611382565b60405180910390f35b61015560048036038101906101509190610f5a565b6109fb565b604051610166959493929190611405565b60405180910390f35b610177610af6565b6040516101849190611478565b60405180910390f35b6101a760048036038101906101a29190611493565b610b95565b6040516101b4919061156f565b60405180910390f35b6101c5610c2c565b6040516101d29190611382565b60405180910390f35b6101e3610c31565b6040516101f09190611382565b60405180910390f35b610213600480360381019061020e9190610f5a565b610c3e565b005b61021d610e5c565b6001805490508210610264576040517f08c379a000000000000000000000000000000000000000000000000000000000815260040161025b906115dd565b60405180910390fd5b60018281548110610278576102776115fd565b5b90600052602060002090600502016040518060a0016040529081600082015481526020016001820160009054906101000a900473ffffffffffffffffffffffffffffffffffffffff1673ffffffffffffffffffffffffffffffffffffffff1673ffffffffffffffffffffffffffffffffffffffff1681526020016002820180546103019061165b565b80601f016020809104026020016040519081016040528092919081815260200182805461032d9061165b565b801561037a5780601f1061034f5761010080835404028352916020019161037a565b820191906000526020600020905b81548152906001019060200180831161035d57829003601f168201915b50505050508152602001600382015481526020016004820160009054906101000a900460ff1660018111156103b2576103b1611067565b5b60018111156103c4576103c3611067565b5b815250509050919050565b60006103d9610af6565b90506000811361041e576040517f08c379a0000000000000000000000000000000000000000000000000000000008152600401610415906116d8565b60405180910390fd5b60008111610461576040517f08c379a000000000000000000000000000000000000000000000000000000000815260040161045890611744565b60405180910390fd5b4282116104a3576040517f08c379a000000000000000000000000000000000000000000000000000000000815260040161049a906117b0565b60405180910390fd5b6000600180549050905060016040518060a001604052808381526020013373ffffffffffffffffffffffffffffffffffffffff168152602001868152602001858152602001600060018111156104fc576104fb611067565b5b81525090806001815401808255809150506001900390600052602060002090600502016000909190919091506000820151816000015560208201518160010160006101000a81548173ffffffffffffffffffffffffffffffffffffffff021916908373ffffffffffffffffffffffffffffffffffffffff160217905550604082015181600201908161058e919061197c565b506060820151816003015560808201518160040160006101000a81548160ff021916908360018111156105c4576105c3611067565b5b02179055505050600260003373ffffffffffffffffffffffffffffffffffffffff1673ffffffffffffffffffffffffffffffffffffffff1681526020019081526020016000208190806001815401808255809150506001900390600052602060002001600090919091909150557f3f7a2e351fa3027f57e716dc207fde836294eb74806a2c2c0dd2975ba0ccce81813386866040516106669493929190611a4e565b60405180910390a150505050565b8060018054905081106106bc576040517f08c379a00000000000000000000000000000000000000000000000000000000081526004016106b3906115dd565b60405180910390fd5b3373ffffffffffffffffffffffffffffffffffffffff16600182815481106106e7576106e66115fd565b5b906000526020600020906005020160010160009054906101000a900473ffffffffffffffffffffffffffffffffffffffff1673ffffffffffffffffffffffffffffffffffffffff161461076f576040517f08c379a000000000000000000000000000000000000000000000000000000000815260040161076690611ae6565b60405180910390fd5b600060018381548110610785576107846115fd565b5b906000526020600020906005020160010160009054906101000a900473ffffffffffffffffffffffffffffffffffffffff16905060018080805490506107cb9190611b35565b815481106107dc576107db6115fd565b5b9060005260206000209060050201600184815481106107fe576107fd6115fd565b5b9060005260206000209060050201600082015481600001556001820160009054906101000a900473ffffffffffffffffffffffffffffffffffffffff168160010160006101000a81548173ffffffffffffffffffffffffffffffffffffffff021916908373ffffffffffffffffffffffffffffffffffffffff160217905550600282018160020190816108919190611b7f565b50600382015481600301556004820160009054906101000a900460ff168160040160006101000a81548160ff021916908360018111156108d4576108d3611067565b5b021790555090505082600184815481106108f1576108f06115fd565b5b906000526020600020906005020160000181905550600180548061091857610917611c67565b5b60019003818190600052602060002090600502016000808201600090556001820160006101000a81549073ffffffffffffffffffffffffffffffffffffffff021916905560028201600061096c9190610eb3565b60038201600090556004820160006101000a81549060ff0219169055505090557f342ff6c61d8ac95b75821982d3bac415a2f2e4f121b1fccda188bd67d31324b783826040516109bd929190611c96565b60405180910390a1505050565b600260205281600052604060002081815481106109e657600080fd5b90600052602060002001600091509150505481565b60018181548110610a0b57600080fd5b90600052602060002090600502016000915090508060000154908060010160009054906101000a900473ffffffffffffffffffffffffffffffffffffffff1690806002018054610a5a9061165b565b80601f0160208091040260200160405190810160405280929190818152602001828054610a869061165b565b8015610ad35780601f10610aa857610100808354040283529160200191610ad3565b820191906000526020600020905b815481529060010190602001808311610ab657829003601f168201915b5050505050908060030154908060040160009054906101000a900460ff16905085565b60008060008054906101000a900473ffffffffffffffffffffffffffffffffffffffff1673ffffffffffffffffffffffffffffffffffffffff1663feaf968c6040518163ffffffff1660e01b815260040160a060405180830381865afa158015610b64573d6000803e3d6000fd5b505050506040513d601f19601f82011682018060405250810190610b889190611d42565b5050509150508091505090565b6060600260008373ffffffffffffffffffffffffffffffffffffffff1673ffffffffffffffffffffffffffffffffffffffff168152602001908152602001600020805480602002602001604051908101604052809291908181526020018280548015610c2057602002820191906000526020600020905b815481526020019060010190808311610c0c575b50505050509050919050565b600081565b6000600180549050905090565b806001805490508110610c86576040517f08c379a0000000000000000000000000000000000000000000000000000000008152600401610c7d906115dd565b60405180910390fd5b3373ffffffffffffffffffffffffffffffffffffffff1660018281548110610cb157610cb06115fd565b5b906000526020600020906005020160010160009054906101000a900473ffffffffffffffffffffffffffffffffffffffff1673ffffffffffffffffffffffffffffffffffffffff1614610d39576040517f08c379a0000000000000000000000000000000000000000000000000000000008152600401610d3090611ae6565b60405180910390fd5b60006001811115610d4d57610d4c611067565b5b60018381548110610d6157610d606115fd565b5b906000526020600020906005020160040160009054906101000a900460ff166001811115610d9257610d91611067565b5b14610dd2576040517f08c379a0000000000000000000000000000000000000000000000000000000008152600401610dc990611e09565b60405180910390fd5b6001808381548110610de757610de66115fd565b5b906000526020600020906005020160040160006101000a81548160ff02191690836001811115610e1a57610e19611067565b5b02179055507fbb5889c77948badf90e8a5c73d55265e5f5d6e4837a79a78c5669691b897faed8233604051610e50929190611c96565b60405180910390a15050565b6040518060a0016040528060008152602001600073ffffffffffffffffffffffffffffffffffffffff168152602001606081526020016000815260200160006001811115610ead57610eac611067565b5b81525090565b508054610ebf9061165b565b6000825580601f10610ed15750610ef0565b601f016020900490600052602060002090810190610eef9190610ef3565b5b50565b5b80821115610f0c576000816000905550600101610ef4565b5090565b6000604051905090565b600080fd5b600080fd5b6000819050919050565b610f3781610f24565b8114610f4257600080fd5b50565b600081359050610f5481610f2e565b92915050565b600060208284031215610f7057610f6f610f1a565b5b6000610f7e84828501610f45565b91505092915050565b610f9081610f24565b82525050565b600073ffffffffffffffffffffffffffffffffffffffff82169050919050565b6000610fc182610f96565b9050919050565b610fd181610fb6565b82525050565b600081519050919050565b600082825260208201905092915050565b60005b83811015611011578082015181840152602081019050610ff6565b60008484015250505050565b6000601f19601f8301169050919050565b600061103982610fd7565b6110438185610fe2565b9350611053818560208601610ff3565b61105c8161101d565b840191505092915050565b7f4e487b7100000000000000000000000000000000000000000000000000000000600052602160045260246000fd5b600281106110a7576110a6611067565b5b50565b60008190506110b882611096565b919050565b60006110c8826110aa565b9050919050565b6110d8816110bd565b82525050565b600060a0830160008301516110f66000860182610f87565b5060208301516111096020860182610fc8565b5060408301518482036040860152611121828261102e565b91505060608301516111366060860182610f87565b50608083015161114960808601826110cf565b508091505092915050565b6000602082019050818103600083015261116e81846110de565b905092915050565b600080fd5b600080fd5b7f4e487b7100000000000000000000000000000000000000000000000000000000600052604160045260246000fd5b6111b88261101d565b810181811067ffffffffffffffff821117156111d7576111d6611180565b5b80604052505050565b60006111ea610f10565b90506111f682826111af565b919050565b600067ffffffffffffffff82111561121657611215611180565b5b61121f8261101d565b9050602081019050919050565b82818337600083830152505050565b600061124e611249846111fb565b6111e0565b90508281526020810184848401111561126a5761126961117b565b5b61127584828561122c565b509392505050565b600082601f83011261129257611291611176565b5b81356112a284826020860161123b565b91505092915050565b600080604083850312156112c2576112c1610f1a565b5b600083013567ffffffffffffffff8111156112e0576112df610f1f565b5b6112ec8582860161127d565b92505060206112fd85828601610f45565b9150509250929050565b61131081610fb6565b811461131b57600080fd5b50565b60008135905061132d81611307565b92915050565b6000806040838503121561134a57611349610f1a565b5b60006113588582860161131e565b925050602061136985828601610f45565b9150509250929050565b61137c81610f24565b82525050565b60006020820190506113976000830184611373565b92915050565b6113a681610fb6565b82525050565b600082825260208201905092915050565b60006113c882610fd7565b6113d281856113ac565b93506113e2818560208601610ff3565b6113eb8161101d565b840191505092915050565b6113ff816110bd565b82525050565b600060a08201905061141a6000830188611373565b611427602083018761139d565b818103604083015261143981866113bd565b90506114486060830185611373565b61145560808301846113f6565b9695505050505050565b6000819050919050565b6114728161145f565b82525050565b600060208201905061148d6000830184611469565b92915050565b6000602082840312156114a9576114a8610f1a565b5b60006114b78482850161131e565b91505092915050565b600081519050919050565b600082825260208201905092915050565b6000819050602082019050919050565b60006114f88383610f87565b60208301905092915050565b6000602082019050919050565b600061151c826114c0565b61152681856114cb565b9350611531836114dc565b8060005b8381101561156257815161154988826114ec565b975061155483611504565b925050600181019050611535565b5085935050505092915050565b600060208201905081810360008301526115898184611511565b905092915050565b7f5461736b20646f6573206e6f7420657869737400000000000000000000000000600082015250565b60006115c76013836113ac565b91506115d282611591565b602082019050919050565b600060208201905081810360008301526115f6816115ba565b9050919050565b7f4e487b7100000000000000000000000000000000000000000000000000000000600052603260045260246000fd5b7f4e487b7100000000000000000000000000000000000000000000000000000000600052602260045260246000fd5b6000600282049050600182168061167357607f821691505b6020821081036116865761168561162c565b5b50919050565b7f496e76616c696420707269636520666565640000000000000000000000000000600082015250565b60006116c26012836113ac565b91506116cd8261168c565b602082019050919050565b600060208201905081810360008301526116f1816116b5565b9050919050565b7f45544820707269636520746f6f206c6f77000000000000000000000000000000600082015250565b600061172e6011836113ac565b9150611739826116f8565b602082019050919050565b6000602082019050818103600083015261175d81611721565b9050919050565b7f496e76616c696420646561646c696e6500000000000000000000000000000000600082015250565b600061179a6010836113ac565b91506117a582611764565b602082019050919050565b600060208201905081810360008301526117c98161178d565b9050919050565b60008190508160005260206000209050919050565b60006020601f8301049050919050565b600082821b905092915050565b6000600883026118327fffffffffffffffffffffffffffffffffffffffffffffffffffffffffffffffff826117f5565b61183c86836117f5565b95508019841693508086168417925050509392505050565b6000819050919050565b600061187961187461186f84610f24565b611854565b610f24565b9050919050565b6000819050919050565b6118938361185e565b6118a761189f82611880565b848454611802565b825550505050565b600090565b6118bc6118af565b6118c781848461188a565b505050565b5b818110156118eb576118e06000826118b4565b6001810190506118cd565b5050565b601f82111561193057611901816117d0565b61190a846117e5565b81016020851015611919578190505b61192d611925856117e5565b8301826118cc565b50505b505050565b600082821c905092915050565b600061195360001984600802611935565b1980831691505092915050565b600061196c8383611942565b9150826002028217905092915050565b61198582610fd7565b67ffffffffffffffff81111561199e5761199d611180565b5b6119a8825461165b565b6119b38282856118ef565b600060209050601f8311600181146119e657600084156119d4578287015190505b6119de8582611960565b865550611a46565b601f1984166119f4866117d0565b60005b82811015611a1c578489015182556001820191506020850194506020810190506119f7565b86831015611a395784890151611a35601f891682611942565b8355505b6001600288020188555050505b505050505050565b6000608082019050611a636000830187611373565b611a70602083018661139d565b8181036040830152611a8281856113bd565b9050611a916060830184611373565b95945050505050565b7f4e6f74207461736b206f776e6572000000000000000000000000000000000000600082015250565b6000611ad0600e836113ac565b9150611adb82611a9a565b602082019050919050565b60006020820190508181036000830152611aff81611ac3565b9050919050565b7f4e487b7100000000000000000000000000000000000000000000000000000000600052601160045260246000fd5b6000611b4082610f24565b9150611b4b83610f24565b9250828203905081811115611b6357611b62611b06565b5b92915050565b600081549050611b788161165b565b9050919050565b818103611b8d575050611c65565b611b9682611b69565b67ffffffffffffffff811115611baf57611bae611180565b5b611bb9825461165b565b611bc48282856118ef565b6000601f831160018114611bf35760008415611be1578287015490505b611beb8582611960565b865550611c5e565b601f198416611c01876117d0565b9650611c0c866117d0565b60005b82811015611c3457848901548255600182019150600185019450602081019050611c0f565b86831015611c515784890154611c4d601f891682611942565b8355505b6001600288020188555050505b5050505050505b565b7f4e487b7100000000000000000000000000000000000000000000000000000000600052603160045260246000fd5b6000604082019050611cab6000830185611373565b611cb8602083018461139d565b9392505050565b600069ffffffffffffffffffff82169050919050565b611cde81611cbf565b8114611ce957600080fd5b50565b600081519050611cfb81611cd5565b92915050565b611d0a8161145f565b8114611d1557600080fd5b50565b600081519050611d2781611d01565b92915050565b600081519050611d3c81610f2e565b92915050565b600080600080600060a08688031215611d5e57611d5d610f1a565b5b6000611d6c88828901611cec565b9550506020611d7d88828901611d18565b9450506040611d8e88828901611d2d565b9350506060611d9f88828901611d2d565b9250506080611db088828901611cec565b9150509295509295909350565b7f416c726561647920636f6d706c65746564000000000000000000000000000000600082015250565b6000611df36011836113ac565b9150611dfe82611dbd565b602082019050919050565b60006020820190508181036000830152611e2281611de6565b905091905056fea2646970667358221220c939b246fb74315eda8339ae03210015da573bf8b1cfc1e825aa51df0a63ca3f64736f6c634300081c0033",
  "linkReferences": {},
  "deployedLinkReferences": {}
}